{
  "_format": "hh-sol-artifact-1",
  "contractName": "CohortLicensingExchange",
  "sourceName": "contracts/CohortLicensingExchange.sol",
  "abi": [
    {
      "inputs": [
        {
          "internalType": "address",
          "name": "admin",
          "type": "address"
        },
        {
          "internalType": "address",
          "name": "registry_",
          "type": "address"
        },
        {
          "internalType": "address",
          "name": "rewardToken_",
          "type": "address"
        },
        {
          "internalType": "address",
          "name": "treasury_",
          "type": "address"
        },
        {
          "internalType": "address",
          "name": "reserveVault_",
          "type": "address"
        }
      ],
      "stateMutability": "nonpayable",
      "type": "constructor"
    },
    {
      "inputs": [],
      "name": "AccessControlBadConfirmation",
      "type": "error"
    },
    {
      "inputs": [
        {
          "internalType": "address",
          "name": "account",
          "type": "address"
        },
        {
          "internalType": "bytes32",
          "name": "neededRole",
          "type": "bytes32"
        }
      ],
      "name": "AccessControlUnauthorizedAccount",
      "type": "error"
    },
    {
      "inputs": [],
      "name": "ReentrancyGuardReentrantCall",
      "type": "error"
    },
    {
      "anonymous": false,
      "inputs": [
        {
          "indexed": true,
          "internalType": "uint256",
          "name": "cohortId",
          "type": "uint256"
        },
        {
          "indexed": false,
          "internalType": "bytes32",
          "name": "descriptorHash",
          "type": "bytes32"
        },
        {
          "indexed": false,
          "internalType": "uint256",
          "name": "pricePerLicense",
          "type": "uint256"
        }
      ],
      "name": "CohortCreated",
      "type": "event"
    },
    {
      "anonymous": false,
      "inputs": [
        {
          "indexed": true,
          "internalType": "uint256",
          "name": "cohortId",
          "type": "uint256"
        },
        {
          "indexed": true,
          "internalType": "uint256",
          "name": "evidenceId",
          "type": "uint256"
        }
      ],
      "name": "CohortEvidenceAdded",
      "type": "event"
    },
    {
      "anonymous": false,
      "inputs": [
        {
          "indexed": true,
          "internalType": "uint256",
          "name": "cohortId",
          "type": "uint256"
        },
        {
          "indexed": true,
          "internalType": "address",
          "name": "buyer",
          "type": "address"
        },
        {
          "indexed": false,
          "internalType": "uint256",
          "name": "pricePaid",
          "type": "uint256"
        },
        {
          "indexed": false,
          "internalType": "bytes32",
          "name": "useCaseHash",
          "type": "bytes32"
        }
      ],
      "name": "CohortPurchased",
      "type": "event"
    },
    {
      "anonymous": false,
      "inputs": [
        {
          "indexed": false,
          "internalType": "uint16",
          "name": "userShareBps",
          "type": "uint16"
        },
        {
          "indexed": false,
          "internalType": "uint16",
          "name": "treasuryShareBps",
          "type": "uint16"
        },
        {
          "indexed": false,
          "internalType": "uint16",
          "name": "reserveShareBps",
          "type": "uint16"
        }
      ],
      "name": "CohortShareConfigUpdated",
      "type": "event"
    },
    {
      "anonymous": false,
      "inputs": [
        {
          "indexed": true,
          "internalType": "bytes32",
          "name": "role",
          "type": "bytes32"
        },
        {
          "indexed": true,
          "internalType": "bytes32",
          "name": "previousAdminRole",
          "type": "bytes32"
        },
        {
          "indexed": true,
          "internalType": "bytes32",
          "name": "newAdminRole",
          "type": "bytes32"
        }
      ],
      "name": "RoleAdminChanged",
      "type": "event"
    },
    {
      "anonymous": false,
      "inputs": [
        {
          "indexed": true,
          "internalType": "bytes32",
          "name": "role",
          "type": "bytes32"
        },
        {
          "indexed": true,
          "internalType": "address",
          "name": "account",
          "type": "address"
        },
        {
          "indexed": true,
          "internalType": "address",
          "name": "sender",
          "type": "address"
        }
      ],
      "name": "RoleGranted",
      "type": "event"
    },
    {
      "anonymous": false,
      "inputs": [
        {
          "indexed": true,
          "internalType": "bytes32",
          "name": "role",
          "type": "bytes32"
        },
        {
          "indexed": true,
          "internalType": "address",
          "name": "account",
          "type": "address"
        },
        {
          "indexed": true,
          "internalType": "address",
          "name": "sender",
          "type": "address"
        }
      ],
      "name": "RoleRevoked",
      "type": "event"
    },
    {
      "anonymous": false,
      "inputs": [
        {
          "indexed": false,
          "internalType": "address",
          "name": "treasury",
          "type": "address"
        },
        {
          "indexed": false,
          "internalType": "address",
          "name": "reserveVault",
          "type": "address"
        }
      ],
      "name": "TreasuryUpdated",
      "type": "event"
    },
    {
      "inputs": [],
      "name": "DEFAULT_ADMIN_ROLE",
      "outputs": [
        {
          "internalType": "bytes32",
          "name": "",
          "type": "bytes32"
        }
      ],
      "stateMutability": "view",
      "type": "function"
    },
    {
      "inputs": [],
      "name": "MANAGER_ROLE",
      "outputs": [
        {
          "internalType": "bytes32",
          "name": "",
          "type": "bytes32"
        }
      ],
      "stateMutability": "view",
      "type": "function"
    },
    {
      "inputs": [
        {
          "internalType": "uint256",
          "name": "cohortId",
          "type": "uint256"
        },
        {
          "internalType": "uint256",
          "name": "evidenceId",
          "type": "uint256"
        }
      ],
      "name": "addEvidenceToCohort",
      "outputs": [],
      "stateMutability": "nonpayable",
      "type": "function"
    },
    {
      "inputs": [
        {
          "internalType": "uint256",
          "name": "cohortId",
          "type": "uint256"
        }
      ],
      "name": "cohortEvidenceIds",
      "outputs": [
        {
          "internalType": "uint256[]",
          "name": "",
          "type": "uint256[]"
        }
      ],
      "stateMutability": "view",
      "type": "function"
    },
    {
      "inputs": [
        {
          "internalType": "uint256",
          "name": "",
          "type": "uint256"
        }
      ],
      "name": "cohorts",
      "outputs": [
        {
          "internalType": "bool",
          "name": "active",
          "type": "bool"
        },
        {
          "internalType": "uint96",
          "name": "pricePerLicense",
          "type": "uint96"
        },
        {
          "internalType": "uint8",
          "name": "minQualityScore",
          "type": "uint8"
        },
        {
          "internalType": "bytes32",
          "name": "descriptorHash",
          "type": "bytes32"
        },
        {
          "internalType": "uint64",
          "name": "createdAt",
          "type": "uint64"
        }
      ],
      "stateMutability": "view",
      "type": "function"
    },
    {
      "inputs": [
        {
          "internalType": "bytes32",
          "name": "descriptorHash",
          "type": "bytes32"
        },
        {
          "internalType": "uint96",
          "name": "pricePerLicense",
          "type": "uint96"
        },
        {
          "internalType": "uint8",
          "name": "minQualityScore",
          "type": "uint8"
        }
      ],
      "name": "createCohort",
      "outputs": [
        {
          "internalType": "uint256",
          "name": "cohortId",
          "type": "uint256"
        }
      ],
      "stateMutability": "nonpayable",
      "type": "function"
    },
    {
      "inputs": [
        {
          "internalType": "bytes32",
          "name": "role",
          "type": "bytes32"
        }
      ],
      "name": "getRoleAdmin",
      "outputs": [
        {
          "internalType": "bytes32",
          "name": "",
          "type": "bytes32"
        }
      ],
      "stateMutability": "view",
      "type": "function"
    },
    {
      "inputs": [
        {
          "internalType": "bytes32",
          "name": "role",
          "type": "bytes32"
        },
        {
          "internalType": "address",
          "name": "account",
          "type": "address"
        }
      ],
      "name": "grantRole",
      "outputs": [],
      "stateMutability": "nonpayable",
      "type": "function"
    },
    {
      "inputs": [
        {
          "internalType": "bytes32",
          "name": "role",
          "type": "bytes32"
        },
        {
          "internalType": "address",
          "name": "account",
          "type": "address"
        }
      ],
      "name": "hasRole",
      "outputs": [
        {
          "internalType": "bool",
          "name": "",
          "type": "bool"
        }
      ],
      "stateMutability": "view",
      "type": "function"
    },
    {
      "inputs": [],
      "name": "nextCohortId",
      "outputs": [
        {
          "internalType": "uint256",
          "name": "",
          "type": "uint256"
        }
      ],
      "stateMutability": "view",
      "type": "function"
    },
    {
      "inputs": [
        {
          "internalType": "uint256",
          "name": "cohortId",
          "type": "uint256"
        },
        {
          "internalType": "bytes32",
          "name": "useCaseHash",
          "type": "bytes32"
        }
      ],
      "name": "purchaseLicense",
      "outputs": [],
      "stateMutability": "nonpayable",
      "type": "function"
    },
    {
      "inputs": [],
      "name": "registry",
      "outputs": [
        {
          "internalType": "contract IEvidenceRegistry",
          "name": "",
          "type": "address"
        }
      ],
      "stateMutability": "view",
      "type": "function"
    },
    {
      "inputs": [
        {
          "internalType": "bytes32",
          "name": "role",
          "type": "bytes32"
        },
        {
          "internalType": "address",
          "name": "callerConfirmation",
          "type": "address"
        }
      ],
      "name": "renounceRole",
      "outputs": [],
      "stateMutability": "nonpayable",
      "type": "function"
    },
    {
      "inputs": [],
      "name": "reserveShareBps",
      "outputs": [
        {
          "internalType": "uint16",
          "name": "",
          "type": "uint16"
        }
      ],
      "stateMutability": "view",
      "type": "function"
    },
    {
      "inputs": [],
      "name": "reserveVault",
      "outputs": [
        {
          "internalType": "address",
          "name": "",
          "type": "address"
        }
      ],
      "stateMutability": "view",
      "type": "function"
    },
    {
      "inputs": [
        {
          "internalType": "bytes32",
          "name": "role",
          "type": "bytes32"
        },
        {
          "internalType": "address",
          "name": "account",
          "type": "address"
        }
      ],
      "name": "revokeRole",
      "outputs": [],
      "stateMutability": "nonpayable",
      "type": "function"
    },
    {
      "inputs": [],
      "name": "rewardToken",
      "outputs": [
        {
          "internalType": "contract IERC20",
          "name": "",
          "type": "address"
        }
      ],
      "stateMutability": "view",
      "type": "function"
    },
    {
      "inputs": [
        {
          "internalType": "uint16",
          "name": "newUserShareBps",
          "type": "uint16"
        },
        {
          "internalType": "uint16",
          "name": "newTreasuryShareBps",
          "type": "uint16"
        },
        {
          "internalType": "uint16",
          "name": "newReserveShareBps",
          "type": "uint16"
        }
      ],
      "name": "setShareConfig",
      "outputs": [],
      "stateMutability": "nonpayable",
      "type": "function"
    },
    {
      "inputs": [
        {
          "internalType": "address",
          "name": "treasury_",
          "type": "address"
        },
        {
          "internalType": "address",
          "name": "reserveVault_",
          "type": "address"
        }
      ],
      "name": "setTreasuryAddresses",
      "outputs": [],
      "stateMutability": "nonpayable",
      "type": "function"
    },
    {
      "inputs": [
        {
          "internalType": "bytes4",
          "name": "interfaceId",
          "type": "bytes4"
        }
      ],
      "name": "supportsInterface",
      "outputs": [
        {
          "internalType": "bool",
          "name": "",
          "type": "bool"
        }
      ],
      "stateMutability": "view",
      "type": "function"
    },
    {
      "inputs": [],
      "name": "treasury",
      "outputs": [
        {
          "internalType": "address",
          "name": "",
          "type": "address"
        }
      ],
      "stateMutability": "view",
      "type": "function"
    },
    {
      "inputs": [],
      "name": "treasuryShareBps",
      "outputs": [
        {
          "internalType": "uint16",
          "name": "",
          "type": "uint16"
        }
      ],
      "stateMutability": "view",
      "type": "function"
    },
    {
      "inputs": [],
      "name": "userShareBps",
      "outputs": [
        {
          "internalType": "uint16",
          "name": "",
          "type": "uint16"
        }
      ],
      "stateMutability": "view",
      "type": "function"
    }
  ],
  "bytecode": "0x60c0346200029257601f62001d5638819003918201601f191683019291906001600160401b0384118385101762000297578160a0928492604096875283398101031262000292576200005181620002ad565b60209162000061838201620002ad565b916200006f858301620002ad565b906200008c60806200008460608601620002ad565b9401620002ad565b60017f9b779b17422d0df92223018b32b4d1fa46e071723d6817e2486d003becc55f00556002805465ffffffffffff60a01b191664fa0177075360a21b179055936001600160a01b039082821615620002645781169283156200023357811693841562000205578116948515620001d45716948515620001a5575080620001176200011e92620002c2565b5062000342565b5060805260a05260018060a01b0319908160015416176001556002541617600255516119519081620003e582396080518181816103e90152818161054b015281816106ee015281816107d10152818161083c01528181610d7f0152610f1a015260a0518181816101320152818161037d0152818161059001528181610605015261067a0152f35b60649087519062461bcd60e51b8252600482015260096024820152680726573657276653d360bc1b6044820152fd5b875162461bcd60e51b815260048101889052600a602482015269074726561737572793d360b41b6044820152606490fd5b875162461bcd60e51b81526004810188905260076024820152660746f6b656e3d360cc1b6044820152606490fd5b875162461bcd60e51b815260048101889052600a602482015269072656769737472793d360b41b6044820152606490fd5b875162461bcd60e51b8152600481018890526007602482015266061646d696e3d360cc1b6044820152606490fd5b600080fd5b634e487b7160e01b600052604160045260246000fd5b51906001600160a01b03821682036200029257565b6001600160a01b031660008181527fad3228b676f7d3cd4284a5443f17f1962b36e491b30a40b2405849e597ba5fb5602052604081205490919060ff166200033e57818052816020526040822081835260205260408220600160ff19825416179055339160008051602062001d368339815191528180a4600190565b5090565b6001600160a01b031660008181527fe84508f2c7fa9c351146748b3025cb78b45df37d868e48c6a75102fecdeee64560205260408120549091907f241ecf16d79d0f8dbfb92cbc07fe17840425976cf0667f022fe9877caa831b089060ff16620003df57808352826020526040832082845260205260408320600160ff1982541617905560008051602062001d36833981519152339380a4600190565b50509056fe608080604052600436101561001357600080fd5b60003560e01c90816301ffc9a71461157857508063217c498d14611481578063248a9ca3146114525780632f2ff15d1461141357806330654a47146113ee57806336568abe146113a75780633b1085331461129d5780634a9dadda1461112457806355139ddb14610e6b5780635a3e4e9e14610e4657806361d027b314610e1d57806374ed78d014610dae5780637b10399914610d69578063807047ca14610cc35780638c64b1a814610ca557806391d1485414610c58578063a217fddf14610c3c578063b30aefba14610230578063cef062fc14610207578063d547741f146101c6578063ec87621c1461018b578063ee12628e146101665763f7c618c11461011c57600080fd5b34610161576000366003190112610161576040517f00000000000000000000000000000000000000000000000000000000000000006001600160a01b03168152602090f35b600080fd5b3461016157600036600319011261016157602061ffff60025460c01c16604051908152f35b346101615760003660031901126101615760206040517f241ecf16d79d0f8dbfb92cbc07fe17840425976cf0667f022fe9877caa831b088152f35b34610161576040366003190112610161576102056004356101e56115cb565b90806000526000602052610200600160406000200154611695565b611739565b005b34610161576000366003190112610161576002546040516001600160a01b039091168152602090f35b346101615760403660031901126101615760027f9b779b17422d0df92223018b32b4d1fa46e071723d6817e2486d003becc55f005414610c2a5760027f9b779b17422d0df92223018b32b4d1fa46e071723d6817e2486d003becc55f005560043560005260046020526040600020604051906102ab826117bb565b67ffffffffffffffff600282549260ff8085161594851587526001600160601b038160081c16602088015260681c166040860152600181015460608601520154166080830152610bf357600435600052600560205260406000206040518082602082945493848152019060005260206000209260005b818110610bda575050610336925003826117d7565b805115610ba6576020828101516040516323b872dd60e01b81523360048201523060248201526001600160601b039091166044820152908160648160006001600160a01b037f0000000000000000000000000000000000000000000000000000000000000000165af19081156104be57600091610b6c575b5015610b36576000805b82518110156104ca576103cb8184611876565b51604051634dcfd32360e01b8152600481019190915260a0816024817f00000000000000000000000000000000000000000000000000000000000000006001600160a01b03165afa80156104be57600080600093600093610486575b508161047e575b508061046a575b61044a575b505061044590611867565b6103b8565b9261045c6104629261044594956118c0565b906117ae565b91908561043a565b5060ff60408701511660ff83161015610435565b90508761042e565b925050506104ac915060a03d60a0116104b7575b6104a481836117d7565b810190611814565b909350919088610427565b503d61049a565b6040513d6000823e3d90fd5b50828115610afa576001600160601b036020820151169161271061051b816104fd6002549661ffff8860a01c16906118a0565b049461ffff6001600160601b036020870151169160b01c16906118a0565b0461053c81610537866001600160601b036020880151166118b3565b6118b3565b60405163a9059cbb60e01b81527f00000000000000000000000000000000000000000000000000000000000000006001600160a01b03166004820152602481018690529091906020818060448101038160007f00000000000000000000000000000000000000000000000000000000000000006001600160a01b03165af19081156104be57600091610ac0575b5015610a7b5760015460405163a9059cbb60e01b81526001600160a01b03909116600482015260248101919091526020818060448101038160007f00000000000000000000000000000000000000000000000000000000000000006001600160a01b03165af19081156104be57600091610a41575b50156109fc5760025460405163a9059cbb60e01b81526001600160a01b03909116600482015260248101919091526020818060448101038160007f00000000000000000000000000000000000000000000000000000000000000006001600160a01b03165af19081156104be576000916109c2575b501561097d5760005b8451811015610911576106cf8186611876565b51604051634dcfd32360e01b815260048101919091529060a0826024817f00000000000000000000000000000000000000000000000000000000000000006001600160a01b03165afa9182156104be576000926000806000936000936108e4575b50159081156108db575b5080156108c8575b6108bc5761075991610753916118c0565b866118a0565b83156108a657838104610777575b506107729150611867565b6106bc565b6107818288611876565b5192604051936510d3d213d49560d21b6020860152600435602686015260469081860152845283608081011067ffffffffffffffff608086011117610890576080840160405283516020850120917f00000000000000000000000000000000000000000000000000000000000000006001600160a01b03163b1561016157631f427a1960e11b608086019081526001600160a01b0392831660848701529086900460a486015260c485019290925260009190606490829084907f0000000000000000000000000000000000000000000000000000000000000000165af180156104be5761086f575b81610767565b67ffffffffffffffff60808301116108905760806107729201604052610869565b634e487b7160e01b600052604160045260246000fd5b634e487b7160e01b600052601260045260246000fd5b50506107729150611867565b5060ff60408701511660ff831610610742565b9050158961073a565b935050505061090391925060a03d60a0116104b7576104a481836117d7565b92949394919092918a610730565b6001600160601b03602084015116604051908152602435602082015233907ff7e1e38c5d2e25cecb777c63caef711375ae293cf255c0ba962da9b913e91138604060043592a360017f9b779b17422d0df92223018b32b4d1fa46e071723d6817e2486d003becc55f0055005b60405162461bcd60e51b815260206004820152601760248201527f52657365727665207472616e73666572206661696c65640000000000000000006044820152606490fd5b90506020813d6020116109f4575b816109dd602093836117d7565b81010312610161576109ee906117f9565b856106b3565b3d91506109d0565b60405162461bcd60e51b815260206004820152601860248201527f5472656173757279207472616e73666572206661696c656400000000000000006044820152606490fd5b90506020813d602011610a73575b81610a5c602093836117d7565b8101031261016157610a6d906117f9565b8661063e565b3d9150610a4f565b60405162461bcd60e51b815260206004820152601860248201527f5265676973747279207472616e73666572206661696c656400000000000000006044820152606490fd5b90506020813d602011610af2575b81610adb602093836117d7565b8101031261016157610aec906117f9565b876105c9565b3d9150610ace565b60405162461bcd60e51b81526020600482015260146024820152734e6f20656c696769626c652065766964656e636560601b6044820152606490fd5b60405162461bcd60e51b815260206004820152600e60248201526d14185e5b595b9d0819985a5b195960921b6044820152606490fd5b90506020813d602011610b9e575b81610b87602093836117d7565b8101031261016157610b98906117f9565b836103ae565b3d9150610b7a565b60405162461bcd60e51b815260206004820152600c60248201526b115b5c1d1e4818dbda1bdc9d60a21b6044820152606490fd5b8454835260019485019486945060209093019201610321565b60405162461bcd60e51b815260206004820152600f60248201526e436f686f727420696e61637469766560881b6044820152606490fd5b604051633ee5aeb560e01b8152600490fd5b3461016157600036600319011261016157602060405160008152f35b3461016157604036600319011261016157610c716115cb565b600435600052600060205260406000209060018060a01b0316600052602052602060ff604060002054166040519015158152f35b34610161576000366003190112610161576020600354604051908152f35b34610161576020806003193601126101615760043560005260058152604060002060405190818382549182815201908192600052846000209060005b86828210610d55578686610d15828803836117d7565b604051928392818401908285525180915260408401929160005b828110610d3e57505050500390f35b835185528695509381019392810192600101610d2f565b835485529093019260019283019201610cff565b34610161576000366003190112610161576040517f00000000000000000000000000000000000000000000000000000000000000006001600160a01b03168152602090f35b3461016157602036600319011261016157600435600052600460205260a0604060002080549067ffffffffffffffff60026001830154920154169060ff60405193818116151585526001600160601b038160081c16602086015260681c16604084015260608301526080820152f35b34610161576000366003190112610161576001546040516001600160a01b039091168152602090f35b3461016157600036600319011261016157602061ffff60025460a01c16604051908152f35b3461016157604036600319011261016157600435602490813591610e8d611639565b8160005260206004815260406000206080604051610eaa816117bb565b67ffffffffffffffff600284549460ff8616151584526001600160601b038660081c168785015260ff604085019660681c168652600181015460608501520154169182910152156110f557604051634dcfd32360e01b8152600481018690526001600160a01b03919060a08186817f000000000000000000000000000000000000000000000000000000000000000087165afa9283156104be576000906000916000936000966110ce575b50161561109f571561106857156110345760ff80915116911610610ffe578260005260058152604060002080549268010000000000000000841015610fea5760018401808355841015610fd657509084929160005260002001557f2a7aeff51f00d716587660dc120c73744b364dae01e8c181f4dddf6597a824ed600080a3005b634e487b7160e01b60009081526032600452fd5b634e487b7160e01b60009081526041600452fd5b60116064926040519262461bcd60e51b845260048401528201527042656c6f77206d696e207175616c69747960781b6044820152fd5b60405162461bcd60e51b815260048101849052600d818601526c139bdd08185c1c1c985a5cd959609a1b6044820152606490fd5b60405162461bcd60e51b8152600481018590526010818701526f45766964656e6365207072697661746560801b6044820152606490fd5b60405162461bcd60e51b8152600481018690526008818801526727379037bbb732b960c11b6044820152606490fd5b92505093506110eb915060a03d81116104b7576104a481836117d7565b509490928a610f55565b5060096064926040519262461bcd60e51b8452600484015282015268139bc818dbda1bdc9d60ba1b6044820152fd5b34610161576060366003190112610161576004356024356001600160601b038116809103610161576044359060ff821680920361016157611163611639565b801561126e5760035491600183018084116112585760209484937f3a4f7b3bf289a33982e648fd8c96ec790ef61aa8619d0fffc47d778744ce652b936040936003558351906111b1826117bb565b6001825260028983019284845286810192835260608101868152608082019467ffffffffffffffff9485421687528b60005260048e5289600020935115159160ff6cffffffffffffffffffffffff008654925160081b16928160681b905160681b169316906dffffffffffffffffffffffffffff191617171782555160018201550191511667ffffffffffffffff19825416179055825191825286820152a2604051908152f35b634e487b7160e01b600052601160045260246000fd5b60405162461bcd60e51b8152602060048201526007602482015266070726963653d360cc1b6044820152606490fd5b346101615760603660031901126101615760043561ffff80821680830361016157602435928284168085036101615760443593841691828503610161576112e26115e1565b6127106112f8846112f385886117ae565b6117ae565b0361136f577f6b9d72b71e41d8b6de8a05550349b7c2bccd23d1e6d31a936d58359bc68014af956060956002549061ffff60c01b9060c01b169261ffff60a01b9060a01b169065ffffffffffff60a01b1916179061ffff60b01b9060b01b16171760025560405192835260208301526040820152a1005b60405162461bcd60e51b815260206004820152601060248201526f42616420736861726520636f6e66696760801b6044820152606490fd5b34610161576040366003190112610161576113c06115cb565b336001600160a01b038216036113dc5761020590600435611739565b60405163334bd91960e11b8152600490fd5b3461016157600036600319011261016157602061ffff60025460b01c16604051908152f35b34610161576040366003190112610161576102056004356114326115cb565b9080600052600060205261144d600160406000200154611695565b6116bb565b346101615760203660031901126101615760043560005260006020526020600160406000200154604051908152f35b34610161576040366003190112610161576004356001600160a01b0381811691829003610161576114b06115cb565b6114b86115e1565b821561154657168015611515577f4ab5be82436d353e61ca18726e984e561f5c1cc7c6d38b29d2553c790434705a91816040926001600160601b0360a01b83816001541617600155600254161760025582519182526020820152a1005b60405162461bcd60e51b81526020600482015260096024820152680726573657276653d360bc1b6044820152606490fd5b60405162461bcd60e51b815260206004820152600a602482015269074726561737572793d360b41b6044820152606490fd5b34610161576020366003190112610161576004359063ffffffff60e01b821680920361016157602091637965db0b60e01b81149081156115ba575b5015158152f35b6301ffc9a760e01b149050836115b3565b602435906001600160a01b038216820361016157565b3360009081527fad3228b676f7d3cd4284a5443f17f1962b36e491b30a40b2405849e597ba5fb5602052604081205460ff161561161b5750565b6044906040519063e2517d3f60e01b82523360048301526024820152fd5b3360009081527fe84508f2c7fa9c351146748b3025cb78b45df37d868e48c6a75102fecdeee64560205260409020547f241ecf16d79d0f8dbfb92cbc07fe17840425976cf0667f022fe9877caa831b089060ff161561161b5750565b80600052600060205260406000203360005260205260ff604060002054161561161b5750565b9060009180835282602052604083209160018060a01b03169182845260205260ff6040842054161560001461173457808352826020526040832082845260205260408320600160ff198254161790557f2f8788117e7eff1d82e926ec794901d17c78024a50270940304540a733656f0d339380a4600190565b505090565b9060009180835282602052604083209160018060a01b03169182845260205260ff6040842054166000146117345780835282602052604083208284526020526040832060ff1981541690557ff6391f5c32d9c69d2a47ea670b442974b53935d1edc7fd64eb21e047a839171b339380a4600190565b9190820180921161125857565b60a0810190811067ffffffffffffffff82111761089057604052565b90601f8019910116810190811067ffffffffffffffff82111761089057604052565b5190811515820361016157565b519060ff8216820361016157565b908160a09103126101615780516001600160a01b0381168103610161579161183e602083016117f9565b9161184b604082016117f9565b91611864608061185d60608501611806565b9301611806565b90565b60001981146112585760010190565b805182101561188a5760209160051b010190565b634e487b7160e01b600052603260045260246000fd5b8181029291811591840414171561125857565b9190820391821161125857565b611864919060ff16806118db575060ff6064915b16906118a0565b600181148015611911575b156118f6575060ff6096916118d4565b6003036119075760ff60b4916118d4565b60ff60fa916118d4565b50600281146118e656fea2646970667358221220987aaaa049923e108c00844280272c3cf2931f68e0614aa5f870844e6a07130f64736f6c634300081400332f8788117e7eff1d82e926ec794901d17c78024a50270940304540a733656f0d",
  "linkReferences": {},
  "deployedLinkReferences": {}
}