{
  "_format": "hh-sol-artifact-1",
  "contractName": "RecoveryMissions",
  "sourceName": "contracts/RecoveryMissions.sol",
  "abi": [
    {
      "inputs": [
        {
          "internalType": "address",
          "name": "admin",
          "type": "address"
        },
        {
          "internalType": "address",
          "name": "registry_",
          "type": "address"
        },
        {
          "internalType": "address",
          "name": "rewardToken_",
          "type": "address"
        }
      ],
      "stateMutability": "nonpayable",
      "type": "constructor"
    },
    {
      "inputs": [],
      "name": "AccessControlBadConfirmation",
      "type": "error"
    },
    {
      "inputs": [
        {
          "internalType": "address",
          "name": "account",
          "type": "address"
        },
        {
          "internalType": "bytes32",
          "name": "neededRole",
          "type": "bytes32"
        }
      ],
      "name": "AccessControlUnauthorizedAccount",
      "type": "error"
    },
    {
      "inputs": [],
      "name": "ReentrancyGuardReentrantCall",
      "type": "error"
    },
    {
      "anonymous": false,
      "inputs": [
        {
          "indexed": true,
          "internalType": "uint256",
          "name": "missionId",
          "type": "uint256"
        },
        {
          "indexed": true,
          "internalType": "address",
          "name": "user",
          "type": "address"
        },
        {
          "indexed": true,
          "internalType": "uint256",
          "name": "milestoneIndex",
          "type": "uint256"
        },
        {
          "indexed": false,
          "internalType": "uint256",
          "name": "rewardAmount",
          "type": "uint256"
        }
      ],
      "name": "MilestoneApproved",
      "type": "event"
    },
    {
      "anonymous": false,
      "inputs": [
        {
          "indexed": true,
          "internalType": "uint256",
          "name": "missionId",
          "type": "uint256"
        },
        {
          "indexed": false,
          "internalType": "uint256",
          "name": "refundAmount",
          "type": "uint256"
        }
      ],
      "name": "MissionCancelled",
      "type": "event"
    },
    {
      "anonymous": false,
      "inputs": [
        {
          "indexed": true,
          "internalType": "uint256",
          "name": "missionId",
          "type": "uint256"
        },
        {
          "indexed": true,
          "internalType": "address",
          "name": "sponsor",
          "type": "address"
        },
        {
          "indexed": false,
          "internalType": "bytes32",
          "name": "missionHash",
          "type": "bytes32"
        },
        {
          "indexed": false,
          "internalType": "uint256",
          "name": "totalBudget",
          "type": "uint256"
        }
      ],
      "name": "MissionCreated",
      "type": "event"
    },
    {
      "anonymous": false,
      "inputs": [
        {
          "indexed": true,
          "internalType": "uint256",
          "name": "missionId",
          "type": "uint256"
        },
        {
          "indexed": true,
          "internalType": "address",
          "name": "user",
          "type": "address"
        }
      ],
      "name": "MissionJoined",
      "type": "event"
    },
    {
      "anonymous": false,
      "inputs": [
        {
          "indexed": true,
          "internalType": "uint256",
          "name": "missionId",
          "type": "uint256"
        },
        {
          "indexed": true,
          "internalType": "address",
          "name": "user",
          "type": "address"
        },
        {
          "indexed": true,
          "internalType": "uint256",
          "name": "milestoneIndex",
          "type": "uint256"
        },
        {
          "indexed": false,
          "internalType": "bytes32",
          "name": "proofHash",
          "type": "bytes32"
        }
      ],
      "name": "ProofSubmitted",
      "type": "event"
    },
    {
      "anonymous": false,
      "inputs": [
        {
          "indexed": true,
          "internalType": "bytes32",
          "name": "role",
          "type": "bytes32"
        },
        {
          "indexed": true,
          "internalType": "bytes32",
          "name": "previousAdminRole",
          "type": "bytes32"
        },
        {
          "indexed": true,
          "internalType": "bytes32",
          "name": "newAdminRole",
          "type": "bytes32"
        }
      ],
      "name": "RoleAdminChanged",
      "type": "event"
    },
    {
      "anonymous": false,
      "inputs": [
        {
          "indexed": true,
          "internalType": "bytes32",
          "name": "role",
          "type": "bytes32"
        },
        {
          "indexed": true,
          "internalType": "address",
          "name": "account",
          "type": "address"
        },
        {
          "indexed": true,
          "internalType": "address",
          "name": "sender",
          "type": "address"
        }
      ],
      "name": "RoleGranted",
      "type": "event"
    },
    {
      "anonymous": false,
      "inputs": [
        {
          "indexed": true,
          "internalType": "bytes32",
          "name": "role",
          "type": "bytes32"
        },
        {
          "indexed": true,
          "internalType": "address",
          "name": "account",
          "type": "address"
        },
        {
          "indexed": true,
          "internalType": "address",
          "name": "sender",
          "type": "address"
        }
      ],
      "name": "RoleRevoked",
      "type": "event"
    },
    {
      "inputs": [],
      "name": "DEFAULT_ADMIN_ROLE",
      "outputs": [
        {
          "internalType": "bytes32",
          "name": "",
          "type": "bytes32"
        }
      ],
      "stateMutability": "view",
      "type": "function"
    },
    {
      "inputs": [],
      "name": "REVIEWER_ROLE",
      "outputs": [
        {
          "internalType": "bytes32",
          "name": "",
          "type": "bytes32"
        }
      ],
      "stateMutability": "view",
      "type": "function"
    },
    {
      "inputs": [
        {
          "internalType": "uint256",
          "name": "missionId",
          "type": "uint256"
        },
        {
          "internalType": "address",
          "name": "user",
          "type": "address"
        },
        {
          "internalType": "uint256",
          "name": "milestoneIndex",
          "type": "uint256"
        }
      ],
      "name": "approveMilestone",
      "outputs": [],
      "stateMutability": "nonpayable",
      "type": "function"
    },
    {
      "inputs": [
        {
          "internalType": "uint256",
          "name": "missionId",
          "type": "uint256"
        }
      ],
      "name": "cancelMission",
      "outputs": [],
      "stateMutability": "nonpayable",
      "type": "function"
    },
    {
      "inputs": [
        {
          "internalType": "bytes32",
          "name": "missionHash",
          "type": "bytes32"
        },
        {
          "internalType": "uint32",
          "name": "maxParticipants",
          "type": "uint32"
        },
        {
          "internalType": "uint128[]",
          "name": "rewardAmounts",
          "type": "uint128[]"
        },
        {
          "internalType": "bytes32[]",
          "name": "milestoneHashes",
          "type": "bytes32[]"
        }
      ],
      "name": "createMission",
      "outputs": [
        {
          "internalType": "uint256",
          "name": "missionId",
          "type": "uint256"
        }
      ],
      "stateMutability": "nonpayable",
      "type": "function"
    },
    {
      "inputs": [
        {
          "internalType": "uint256",
          "name": "missionId",
          "type": "uint256"
        },
        {
          "internalType": "uint256",
          "name": "milestoneIndex",
          "type": "uint256"
        }
      ],
      "name": "getMilestone",
      "outputs": [
        {
          "internalType": "uint128",
          "name": "rewardAmount",
          "type": "uint128"
        },
        {
          "internalType": "bytes32",
          "name": "milestoneHash",
          "type": "bytes32"
        }
      ],
      "stateMutability": "view",
      "type": "function"
    },
    {
      "inputs": [
        {
          "internalType": "bytes32",
          "name": "role",
          "type": "bytes32"
        }
      ],
      "name": "getRoleAdmin",
      "outputs": [
        {
          "internalType": "bytes32",
          "name": "",
          "type": "bytes32"
        }
      ],
      "stateMutability": "view",
      "type": "function"
    },
    {
      "inputs": [
        {
          "internalType": "bytes32",
          "name": "role",
          "type": "bytes32"
        },
        {
          "internalType": "address",
          "name": "account",
          "type": "address"
        }
      ],
      "name": "grantRole",
      "outputs": [],
      "stateMutability": "nonpayable",
      "type": "function"
    },
    {
      "inputs": [
        {
          "internalType": "bytes32",
          "name": "role",
          "type": "bytes32"
        },
        {
          "internalType": "address",
          "name": "account",
          "type": "address"
        }
      ],
      "name": "hasRole",
      "outputs": [
        {
          "internalType": "bool",
          "name": "",
          "type": "bool"
        }
      ],
      "stateMutability": "view",
      "type": "function"
    },
    {
      "inputs": [
        {
          "internalType": "uint256",
          "name": "missionId",
          "type": "uint256"
        }
      ],
      "name": "joinMission",
      "outputs": [],
      "stateMutability": "nonpayable",
      "type": "function"
    },
    {
      "inputs": [
        {
          "internalType": "uint256",
          "name": "",
          "type": "uint256"
        },
        {
          "internalType": "address",
          "name": "",
          "type": "address"
        }
      ],
      "name": "joined",
      "outputs": [
        {
          "internalType": "bool",
          "name": "",
          "type": "bool"
        }
      ],
      "stateMutability": "view",
      "type": "function"
    },
    {
      "inputs": [
        {
          "internalType": "uint256",
          "name": "",
          "type": "uint256"
        },
        {
          "internalType": "address",
          "name": "",
          "type": "address"
        },
        {
          "internalType": "uint256",
          "name": "",
          "type": "uint256"
        }
      ],
      "name": "milestoneApproved",
      "outputs": [
        {
          "internalType": "bool",
          "name": "",
          "type": "bool"
        }
      ],
      "stateMutability": "view",
      "type": "function"
    },
    {
      "inputs": [
        {
          "internalType": "uint256",
          "name": "missionId",
          "type": "uint256"
        }
      ],
      "name": "milestoneCount",
      "outputs": [
        {
          "internalType": "uint256",
          "name": "",
          "type": "uint256"
        }
      ],
      "stateMutability": "view",
      "type": "function"
    },
    {
      "inputs": [
        {
          "internalType": "uint256",
          "name": "",
          "type": "uint256"
        }
      ],
      "name": "missions",
      "outputs": [
        {
          "internalType": "address",
          "name": "sponsor",
          "type": "address"
        },
        {
          "internalType": "bool",
          "name": "active",
          "type": "bool"
        },
        {
          "internalType": "uint32",
          "name": "maxParticipants",
          "type": "uint32"
        },
        {
          "internalType": "uint32",
          "name": "participants",
          "type": "uint32"
        },
        {
          "internalType": "uint128",
          "name": "totalBudget",
          "type": "uint128"
        },
        {
          "internalType": "uint128",
          "name": "remainingBudget",
          "type": "uint128"
        },
        {
          "internalType": "bytes32",
          "name": "missionHash",
          "type": "bytes32"
        }
      ],
      "stateMutability": "view",
      "type": "function"
    },
    {
      "inputs": [],
      "name": "nextMissionId",
      "outputs": [
        {
          "internalType": "uint256",
          "name": "",
          "type": "uint256"
        }
      ],
      "stateMutability": "view",
      "type": "function"
    },
    {
      "inputs": [],
      "name": "registry",
      "outputs": [
        {
          "internalType": "contract IEvidenceRegistry",
          "name": "",
          "type": "address"
        }
      ],
      "stateMutability": "view",
      "type": "function"
    },
    {
      "inputs": [
        {
          "internalType": "bytes32",
          "name": "role",
          "type": "bytes32"
        },
        {
          "internalType": "address",
          "name": "callerConfirmation",
          "type": "address"
        }
      ],
      "name": "renounceRole",
      "outputs": [],
      "stateMutability": "nonpayable",
      "type": "function"
    },
    {
      "inputs": [
        {
          "internalType": "bytes32",
          "name": "role",
          "type": "bytes32"
        },
        {
          "internalType": "address",
          "name": "account",
          "type": "address"
        }
      ],
      "name": "revokeRole",
      "outputs": [],
      "stateMutability": "nonpayable",
      "type": "function"
    },
    {
      "inputs": [],
      "name": "rewardToken",
      "outputs": [
        {
          "internalType": "contract IERC20",
          "name": "",
          "type": "address"
        }
      ],
      "stateMutability": "view",
      "type": "function"
    },
    {
      "inputs": [
        {
          "internalType": "uint256",
          "name": "missionId",
          "type": "uint256"
        },
        {
          "internalType": "uint256",
          "name": "milestoneIndex",
          "type": "uint256"
        },
        {
          "internalType": "bytes32",
          "name": "proofHash",
          "type": "bytes32"
        }
      ],
      "name": "submitProof",
      "outputs": [],
      "stateMutability": "nonpayable",
      "type": "function"
    },
    {
      "inputs": [
        {
          "internalType": "uint256",
          "name": "",
          "type": "uint256"
        },
        {
          "internalType": "address",
          "name": "",
          "type": "address"
        },
        {
          "internalType": "uint256",
          "name": "",
          "type": "uint256"
        }
      ],
      "name": "submittedProofs",
      "outputs": [
        {
          "internalType": "bytes32",
          "name": "",
          "type": "bytes32"
        }
      ],
      "stateMutability": "view",
      "type": "function"
    },
    {
      "inputs": [
        {
          "internalType": "bytes4",
          "name": "interfaceId",
          "type": "bytes4"
        }
      ],
      "name": "supportsInterface",
      "outputs": [
        {
          "internalType": "bool",
          "name": "",
          "type": "bool"
        }
      ],
      "stateMutability": "view",
      "type": "function"
    }
  ],
  "bytecode": "0x60c034620001a557601f62001bc138819003918201601f191683019291906001600160401b03841183851017620001aa578160609284926040968752833981010312620001a5576200005181620001c0565b906200006d836200006560208401620001c0565b9201620001c0565b60017f9b779b17422d0df92223018b32b4d1fa46e071723d6817e2486d003becc55f0055906001600160a01b03908382161562000177578116918215620001465716918215620001185780620000c7620000ce92620001d5565b5062000255565b5060805260a052516118a99081620002f882396080518181816101ec015281816105c70152610b6d015260a0518181816101280152818161060d01528181610ca2015261119f0152f35b835162461bcd60e51b81526020600482015260076024820152660746f6b656e3d360cc1b6044820152606490fd5b845162461bcd60e51b815260206004820152600a602482015269072656769737472793d360b41b6044820152606490fd5b845162461bcd60e51b8152602060048201526007602482015266061646d696e3d360cc1b6044820152606490fd5b600080fd5b634e487b7160e01b600052604160045260246000fd5b51906001600160a01b0382168203620001a557565b6001600160a01b031660008181527fad3228b676f7d3cd4284a5443f17f1962b36e491b30a40b2405849e597ba5fb5602052604081205490919060ff166200025157818052816020526040822081835260205260408220600160ff19825416179055339160008051602062001ba18339815191528180a4600190565b5090565b6001600160a01b031660008181527f5c91a81dd90adcbb976f07115cdaa60f95931610e4c2893856278a1e5607a9cc60205260408120549091907fc10c77be35aff266144ed64c26a1fa104bae2f284ae99ac4a34203454704a1859060ff16620002f257808352826020526040832082845260205260408320600160ff1982541617905560008051602062001ba1833981519152339380a4600190565b50509056fe608080604052600436101561001357600080fd5b600090813560e01c90816301ffc9a71461143d575080630c19cedc146113fe578063248a9ca3146113d25780632c8fe5261461134d5780632f2ff15d1461131057806336568abe146112c85780633b129a561461128d57806343e38330146110b85780635d456c271461109a57806361d305f014610bc657806372ebb42a14610b9c5780637b10399914610b575780638598be6a146109ae5780638ed9895c1461096257806391d148541461091a578063a217fddf146108fe578063a441533614610456578063bea5fcc51461040a578063d547741f146103c9578063d82b2c291461019e578063f2a46ee81461015a5763f7c618c11461011357600080fd5b346101575780600319360112610157576040517f00000000000000000000000000000000000000000000000000000000000000006001600160a01b03168152602090f35b80fd5b50346101575760ff6040602092610170366114ad565b918352600686528383209060018060a01b031660005285528260002090825284522054166040519015158152f35b5034610157576020806003193601126103c5576004359081835260028152604083208054916101d260ff8460a01c16611772565b60405163c3c5a54760e01b815233600482015281816024817f00000000000000000000000000000000000000000000000000000000000000006001600160a01b03165afa9081156103ba57869161038d575b501561035857838552600481526040852033600052815260ff604060002054166103235763ffffffff9283808260a81c169160c81c1610156102f05783855260048152604085209033600052526040600020600160ff19825416179055600182825460c81c16019182116102dc57805463ffffffff60c81b191660c89290921b63ffffffff60c81b1691909117905533907f46c4495f0ee3d58b36380634a7eb302a3bcc03782d761b8b5c47f11f05fd9d638380a380f35b634e487b7160e01b84526011600452602484fd5b6064906040519062461bcd60e51b82526004820152600c60248201526b135a5cdcda5bdb88199d5b1b60a21b6044820152fd5b6064906040519062461bcd60e51b82526004820152600e60248201526d105b1c9958591e481a9bda5b995960921b6044820152fd5b6064906040519062461bcd60e51b82526004820152600e60248201526d139bdd081c9959da5cdd195c995960921b6044820152fd5b6103ad9150823d84116103b3575b6103a581836116ec565b81019061170e565b38610224565b503d61039b565b6040513d88823e3d90fd5b5080fd5b5034610157576040366003190112610157576104066004356103e9611492565b90808452836020526104016001604086200154611508565b6115ca565b5080f35b5034610157576040366003190112610157576040610426611492565b9160043581526004602052209060018060a01b0316600052602052602060ff604060002054166040519015158152f35b503461015757610465366114ad565b9161046e611742565b808452600260209081526040852080546001600160a01b039190338382161480156108c1575b1561088d5760ff6104a89160a01c16611772565b838752600483528160408820951694858852835260ff6040882054161561085657838752600383526104df604088205487106117b1565b8387526006835260408720858852835260408720868852835261050960ff604089205416156117ed565b838752600583526040872085885283526040872086885283526040872054156108265783875260038352600161054b6105458860408b20611726565b5061182c565b9101918254926001600160801b0393848451169060801c106107ee578589526006855260408920878a52855260408920888a52855260408920600160ff1982541617905583835116815460801c03908482116107da5780546001600160801b031660809290921b6001600160801b0319169190911790558784827f00000000000000000000000000000000000000000000000000000000000000001692604486865116604051948593849263a9059cbb60e01b845288600485015260248401527f0000000000000000000000000000000000000000000000000000000000000000165af19081156107555789916107bd575b501561077857828251169060405190858201916626a4a9a9a4a7a760c91b835287602782015289604782015260478152608081019367ffffffffffffffff851193828610851761076457908c939291866040528251902091833b1561076057869360649360c487938f958896631f427a1960e11b8852608483015260a482015201525af180156107555761070f575b505051604051911681527fb20af4781b28ee2cae7eea5b7d2be1085685862962b4716c856f6422f5353e489190a460016000805160206118548339815191525580f35b97919761074157604052957fb20af4781b28ee2cae7eea5b7d2be1085685862962b4716c856f6422f5353e48386106cc565b634e487b7160e01b82526041600452602482fd5b6040513d8b823e3d90fd5b8480fd5b634e487b7160e01b8d52604160045260248dfd5b60405162461bcd60e51b815260048101859052601860248201527f5265676973747279207472616e73666572206661696c656400000000000000006044820152606490fd5b6107d49150853d87116103b3576103a581836116ec565b3861063d565b634e487b7160e01b8a52601160045260248afd5b60405162461bcd60e51b815260048101869052601060248201526f109d5919d95d08195e1a185d5cdd195960821b6044820152606490fd5b60405162461bcd60e51b8152600481018490526008602482015267273790383937b7b360c11b6044820152606490fd5b60405162461bcd60e51b815260048101849052600f60248201526e155cd95c881b9bdd081a9bda5b9959608a1b6044820152606490fd5b60405162461bcd60e51b815260048101859052600c60248201526b2737ba103932bb34b2bbb2b960a11b6044820152606490fd5b507fc10c77be35aff266144ed64c26a1fa104bae2f284ae99ac4a34203454704a185885287845260408820338952845260ff604089205416610494565b5034610157578060031936011261015757602090604051908152f35b50346101575760403660031901126101575760ff604060209261093b611492565b60043582528185528282206001600160a01b03909116825284522054604051911615158152f35b50346101575760403660031901126101575761099261054560409260043581526003602052836024359120611726565b60206001600160801b0382511691015182519182526020820152f35b5034610157576060366003190112610157576004356024359060443590808452602060028152610a48604086206040516109e78161169e565b60c0600283549360018060a01b038516845260ff8560a01c16151594858886015263ffffffff90818160a81c16604087015260c81c16606085015260018101546001600160801b038116608086015260801c60a08501520154910152611772565b8185526004815260408520338652815260ff60408620541615610b265781855260038152610a7b604086205485106117b1565b8215610af8577fb4c5c92500782d044d3f3d15b5bdc795913a997874aa9ba898f5b24754d4b7f89082865260068152604086203387528152604086208587528152610acd60ff604088205416156117ed565b828652600581526040862033875281526040862085875281528360408720556040519384523393a480f35b6064906040519062461bcd60e51b825260048201526007602482015266070726f6f663d360cc1b6044820152fd5b6064906040519062461bcd60e51b82526004820152600a602482015269139bdd081a9bda5b995960b21b6044820152fd5b50346101575780600319360112610157576040517f00000000000000000000000000000000000000000000000000000000000000006001600160a01b03168152602090f35b50346101575760203660031901126101575760406020916004358152600383522054604051908152f35b50346101575760803660031901126101575760243563ffffffff811681036103c55767ffffffffffffffff916044358381116103c557610c0a9036906004016114d7565b909360643590811161109657610c249036906004016114d7565b929094610c2f611742565b63ffffffff85161561106957821561103457838303610ffd578193825b848110610f88575063ffffffff861685029480860463ffffffff88161490151715610f74576040516323b872dd60e01b81523360048201523060248201526001600160801b0386166044820152602081606481877f00000000000000000000000000000000000000000000000000000000000000006001600160a01b03165af1908115610f69578491610f4a575b5015610f1457600154956001870187116102dc576001870160015563ffffffff60405191610d078361169e565b33835260016020808501918252929091166040808501918252606085018881526001600160801b038b166080870181905260a08088019190915260043560c0808901919091528d8b52600296879052928a20875181549651955193516001600160e81b03199097166001600160a01b03919091161794151590911b60ff60a01b169390931760a89190911b63ffffffff60a81b161760c89390931b63ffffffff60c81b169290921781559260808181015160a083015190911b6001600160801b0319166001600160801b03919091161760018501550151910155825b848110610e4557602087876001600160801b036040519160043583521683820152817fb3c25846f413c0477d04fe003d6211a638c9bc25da63d47abde82f93469deb3460403393a3600160008051602061185483398151915255604051908152f35b868452600360205260408420610e64610e5f838887611664565b61168a565b90610e7083858c611664565b356001600160801b0360405193610e86856116d0565b168352602083015280549068010000000000000000821015610f005790610eb291600182018155611726565b919091610eec579060016020836001600160801b03610ee7969551166001600160801b0319855416178455015191015561163f565b610de3565b634e487b7160e01b86526004869052602486fd5b634e487b7160e01b87526041600452602487fd5b60405162461bcd60e51b815260206004820152600e60248201526d119d5b991a5b99c819985a5b195960921b6044820152606490fd5b610f63915060203d6020116103b3576103a581836116ec565b38610cda565b6040513d86823e3d90fd5b634e487b7160e01b83526011600452602483fd5b946001600160801b0380610fa0610e5f898988611664565b1615610fcd57610fb4610e5f888887611664565b1681018091116102dc57610fc8909561163f565b610c4c565b60405162461bcd60e51b815260206004820152600860248201526707265776172643d360c41b6044820152606490fd5b60405162461bcd60e51b815260206004820152600f60248201526e0d8cadccee8d040dad2e6dac2e8c6d608b1b6044820152606490fd5b60405162461bcd60e51b815260206004820152600d60248201526c6e6f206d696c6573746f6e657360981b6044820152606490fd5b60405162461bcd60e51b815260206004820152600560248201526406d61783d360dc1b6044820152606490fd5b8280fd5b50346101575780600319360112610157576020600154604051908152f35b5034610157576020806003193601126103c557600435906110d7611742565b818352600281526040832080546001600160a01b038082169290913384148015611270575b1561123a578692918161111660ff60019460a01c16611772565b60ff60a01b191681550180546001600160801b03811690915560801c928361117b575b505050907f776d748530a2daf2a76cd61618802bb55ed04ca708dad20da92335d046b3e57c91604051908152a260016000805160206118548339815191525580f35b9060448592604051948593849263a9059cbb60e01b845260048401528760248401527f0000000000000000000000000000000000000000000000000000000000000000165af190811561122f578591611212575b50156111dd57833880611139565b60405162461bcd60e51b815260048101839052600d60248201526c1499599d5b990819985a5b1959609a1b6044820152606490fd5b6112299150833d85116103b3576103a581836116ec565b386111cf565b6040513d87823e3d90fd5b60405162461bcd60e51b815260048101869052600e60248201526d139bdd08185d5d1a1bdc9a5e995960921b6044820152606490fd5b5086805286855260408720338852855260ff6040882054166110fc565b503461015757806003193601126101575760206040517fc10c77be35aff266144ed64c26a1fa104bae2f284ae99ac4a34203454704a1858152f35b5034610157576040366003190112610157576112e2611492565b336001600160a01b038216036112fe57610406906004356115ca565b60405163334bd91960e11b8152600490fd5b503461015757604036600319011261015757610406600435611330611492565b90808452836020526113486001604086200154611508565b61154c565b503461015757602036600319011261015757604060e091600435815260026020522080549060026001820154910154906040519260018060a01b038116845260ff8160a01c161515602085015263ffffffff90818160a81c16604086015260c81c1660608401526001600160801b038116608084015260801c60a083015260c0820152f35b503461015757602036600319011261015757600160406020926004358152808452200154604051908152f35b5034610157576040602091611412366114ad565b918352600585528383206001600160a01b039091168352845282822090825283522054604051908152f35b9050346103c55760203660031901126103c55760043563ffffffff60e01b81168091036110965760209250637965db0b60e01b8114908115611481575b5015158152f35b6301ffc9a760e01b1490503861147a565b602435906001600160a01b03821682036114a857565b600080fd5b60609060031901126114a857600435906024356001600160a01b03811681036114a8579060443590565b9181601f840112156114a85782359167ffffffffffffffff83116114a8576020808501948460051b0101116114a857565b80600052600060205260406000203360005260205260ff604060002054161561152e5750565b6044906040519063e2517d3f60e01b82523360048301526024820152fd5b9060009180835282602052604083209160018060a01b03169182845260205260ff604084205416156000146115c557808352826020526040832082845260205260408320600160ff198254161790557f2f8788117e7eff1d82e926ec794901d17c78024a50270940304540a733656f0d339380a4600190565b505090565b9060009180835282602052604083209160018060a01b03169182845260205260ff6040842054166000146115c55780835282602052604083208284526020526040832060ff1981541690557ff6391f5c32d9c69d2a47ea670b442974b53935d1edc7fd64eb21e047a839171b339380a4600190565b600019811461164e5760010190565b634e487b7160e01b600052601160045260246000fd5b91908110156116745760051b0190565b634e487b7160e01b600052603260045260246000fd5b356001600160801b03811681036114a85790565b60e0810190811067ffffffffffffffff8211176116ba57604052565b634e487b7160e01b600052604160045260246000fd5b6040810190811067ffffffffffffffff8211176116ba57604052565b90601f8019910116810190811067ffffffffffffffff8211176116ba57604052565b908160209103126114a8575180151581036114a85790565b80548210156116745760005260206000209060011b0190600090565b60008051602061185483398151915260028154146117605760029055565b604051633ee5aeb560e01b8152600490fd5b1561177957565b60405162461bcd60e51b815260206004820152601060248201526f4d697373696f6e20696e61637469766560801b6044820152606490fd5b156117b857565b60405162461bcd60e51b815260206004820152600d60248201526c426164206d696c6573746f6e6560981b6044820152606490fd5b156117f457565b60405162461bcd60e51b815260206004820152601060248201526f105b1c9958591e48185c1c1c9bdd995960821b6044820152606490fd5b90604051611839816116d0565b6020600182946001600160801b038154168452015491015256fe9b779b17422d0df92223018b32b4d1fa46e071723d6817e2486d003becc55f00a26469706673582212202d73979e7f9427e724563b80eee60717d9d1fc99e897c3da1b232b646145c72e64736f6c634300081400332f8788117e7eff1d82e926ec794901d17c78024a50270940304540a733656f0d",
  "linkReferences": {},
  "deployedLinkReferences": {}
}